{
  "contractName": "Casino",
  "abi": [
    {
      "constant": true,
      "inputs": [],
      "name": "numberOfBets",
      "outputs": [
        {
          "name": "",
          "type": "uint256"
        }
      ],
      "payable": false,
      "stateMutability": "view",
      "type": "function"
    },
    {
      "constant": true,
      "inputs": [
        {
          "name": "",
          "type": "address"
        }
      ],
      "name": "playerInfo",
      "outputs": [
        {
          "name": "amountBet",
          "type": "uint256"
        },
        {
          "name": "numberSelected",
          "type": "uint256"
        }
      ],
      "payable": false,
      "stateMutability": "view",
      "type": "function"
    },
    {
      "constant": true,
      "inputs": [],
      "name": "owner",
      "outputs": [
        {
          "name": "",
          "type": "address"
        }
      ],
      "payable": false,
      "stateMutability": "view",
      "type": "function"
    },
    {
      "constant": true,
      "inputs": [],
      "name": "minimumBet",
      "outputs": [
        {
          "name": "",
          "type": "uint256"
        }
      ],
      "payable": false,
      "stateMutability": "view",
      "type": "function"
    },
    {
      "constant": true,
      "inputs": [],
      "name": "maxAmountOfBets",
      "outputs": [
        {
          "name": "",
          "type": "uint256"
        }
      ],
      "payable": false,
      "stateMutability": "view",
      "type": "function"
    },
    {
      "constant": true,
      "inputs": [],
      "name": "numberGenerated",
      "outputs": [
        {
          "name": "",
          "type": "uint256"
        }
      ],
      "payable": false,
      "stateMutability": "view",
      "type": "function"
    },
    {
      "constant": true,
      "inputs": [
        {
          "name": "",
          "type": "uint256"
        }
      ],
      "name": "players",
      "outputs": [
        {
          "name": "",
          "type": "address"
        }
      ],
      "payable": false,
      "stateMutability": "view",
      "type": "function"
    },
    {
      "constant": true,
      "inputs": [],
      "name": "totalBet",
      "outputs": [
        {
          "name": "",
          "type": "uint256"
        }
      ],
      "payable": false,
      "stateMutability": "view",
      "type": "function"
    },
    {
      "inputs": [
        {
          "name": "_minimumBet",
          "type": "uint256"
        }
      ],
      "payable": false,
      "stateMutability": "nonpayable",
      "type": "constructor"
    },
    {
      "payable": true,
      "stateMutability": "payable",
      "type": "fallback"
    },
    {
      "constant": false,
      "inputs": [],
      "name": "kill",
      "outputs": [],
      "payable": false,
      "stateMutability": "nonpayable",
      "type": "function"
    },
    {
      "constant": true,
      "inputs": [
        {
          "name": "player",
          "type": "address"
        }
      ],
      "name": "checkPlayerExists",
      "outputs": [
        {
          "name": "",
          "type": "bool"
        }
      ],
      "payable": false,
      "stateMutability": "view",
      "type": "function"
    },
    {
      "constant": false,
      "inputs": [],
      "name": "generateNumberWinner",
      "outputs": [],
      "payable": false,
      "stateMutability": "nonpayable",
      "type": "function"
    },
    {
      "constant": false,
      "inputs": [
        {
          "name": "numberWinner",
          "type": "uint256"
        }
      ],
      "name": "distributePrizes",
      "outputs": [],
      "payable": false,
      "stateMutability": "nonpayable",
      "type": "function"
    },
    {
      "constant": false,
      "inputs": [
        {
          "name": "numberSelected",
          "type": "uint256"
        }
      ],
      "name": "bet",
      "outputs": [],
      "payable": true,
      "stateMutability": "payable",
      "type": "function"
    }
  ],
  "bytecode": "0x6080604052606460045534801561001557600080fd5b50604051602080610a8e83398101806040528101908080519060200190929190505050336000806101000a81548173ffffffffffffffffffffffffffffffffffffffff021916908373ffffffffffffffffffffffffffffffffffffffff16021790555060008114151561008a57806001819055505b506109f48061009a6000396000f3006080604052600436106100c5576000357c0100000000000000000000000000000000000000000000000000000000900463ffffffff1680630a50e361146100c75780632ca8c6d3146100de5780634081d9161461010957806341c0e1b5146101645780634b1146911461017b5780636ca3fc3b146101d95780637365870b146102065780638da5cb5b14610226578063c38a8afd1461027d578063e08a96cd146102a8578063f5865f89146102d3578063f71d96cb146102fe578063fe5e18531461036b575b005b3480156100d357600080fd5b506100dc610396565b005b3480156100ea57600080fd5b506100f36103b9565b6040518082815260200191505060405180910390f35b34801561011557600080fd5b5061014a600480360381019080803573ffffffffffffffffffffffffffffffffffffffff1690602001909291905050506103bf565b604051808215151515815260200191505060405180910390f35b34801561017057600080fd5b50610179610462565b005b34801561018757600080fd5b506101bc600480360381019080803573ffffffffffffffffffffffffffffffffffffffff1690602001909291905050506104f3565b604051808381526020018281526020019250505060405180910390f35b3480156101e557600080fd5b5061020460048036038101908080359060200190929190505050610517565b005b61022460048036038101908080359060200190929190505050610766565b005b34801561023257600080fd5b5061023b6108d8565b604051808273ffffffffffffffffffffffffffffffffffffffff1673ffffffffffffffffffffffffffffffffffffffff16815260200191505060405180910390f35b34801561028957600080fd5b506102926108fd565b6040518082815260200191505060405180910390f35b3480156102b457600080fd5b506102bd610903565b6040518082815260200191505060405180910390f35b3480156102df57600080fd5b506102e8610909565b6040518082815260200191505060405180910390f35b34801561030a57600080fd5b506103296004803603810190808035906020019092919050505061090f565b604051808273ffffffffffffffffffffffffffffffffffffffff1673ffffffffffffffffffffffffffffffffffffffff16815260200191505060405180910390f35b34801561037757600080fd5b5061038061094d565b6040518082815260200191505060405180910390f35b6001600a438115156103a457fe5b06016006819055506103b7600654610517565b565b60035481565b600080600090505b600580549050811015610457578273ffffffffffffffffffffffffffffffffffffffff166005828154811015156103fa57fe5b9060005260206000200160009054906101000a900473ffffffffffffffffffffffffffffffffffffffff1673ffffffffffffffffffffffffffffffffffffffff16141561044a576001915061045c565b80806001019150506103c7565b600091505b50919050565b6000809054906101000a900473ffffffffffffffffffffffffffffffffffffffff1673ffffffffffffffffffffffffffffffffffffffff163373ffffffffffffffffffffffffffffffffffffffff1614156104f1576000809054906101000a900473ffffffffffffffffffffffffffffffffffffffff1673ffffffffffffffffffffffffffffffffffffffff16ff5b565b60076020528060005260406000206000915090508060000154908060010154905082565b61051f610953565b6000806000806000809450600093505b6005805490508410156106805760058481548110151561054b57fe5b9060005260206000200160009054906101000a900473ffffffffffffffffffffffffffffffffffffffff16925086600760008573ffffffffffffffffffffffffffffffffffffffff1673ffffffffffffffffffffffffffffffffffffffff168152602001908152602001600020600101541415610611578286866064811015156105d157fe5b602002019073ffffffffffffffffffffffffffffffffffffffff16908173ffffffffffffffffffffffffffffffffffffffff168152505084806001019550505b600760008473ffffffffffffffffffffffffffffffffffffffff1673ffffffffffffffffffffffffffffffffffffffff1681526020019081526020016000206000808201600090556001820160009055505060006002819055506000600381905550838060010194505061052f565b600060058161068f9190610977565b50606460025481151561069e57fe5b049150600090505b8481101561075d57600073ffffffffffffffffffffffffffffffffffffffff1686826064811015156106d457fe5b602002015173ffffffffffffffffffffffffffffffffffffffff1614151561075057858160648110151561070457fe5b602002015173ffffffffffffffffffffffffffffffffffffffff166108fc839081150290604051600060405180830381858888f1935050505015801561074e573d6000803e3d6000fd5b505b80806001019150506106a6565b50505050505050565b61076f336103bf565b15151561077b57600080fd5b6001811015801561078d5750600a8111155b151561079857600080fd5b60015434101515156107a957600080fd5b34600760003373ffffffffffffffffffffffffffffffffffffffff1673ffffffffffffffffffffffffffffffffffffffff1681526020019081526020016000206000018190555080600760003373ffffffffffffffffffffffffffffffffffffffff1673ffffffffffffffffffffffffffffffffffffffff1681526020019081526020016000206001018190555060036000815480929190600101919050555060053390806001815401808255809150509060018203906000526020600020016000909192909190916101000a81548173ffffffffffffffffffffffffffffffffffffffff021916908373ffffffffffffffffffffffffffffffffffffffff16021790555050346002600082825401925050819055506004546003541015156108d5576108d4610396565b5b50565b6000809054906101000a900473ffffffffffffffffffffffffffffffffffffffff1681565b60015481565b60045481565b60065481565b60058181548110151561091e57fe5b906000526020600020016000915054906101000a900473ffffffffffffffffffffffffffffffffffffffff1681565b60025481565b610c8060405190810160405280606490602082028038833980820191505090505090565b81548183558181111561099e5781836000526020600020918201910161099d91906109a3565b5b505050565b6109c591905b808211156109c15760008160009055506001016109a9565b5090565b905600a165627a7a72305820ad6b761cf0fd876019b0dc6da00657ef722c4792a3538db88cd7d7686eafce520029",
  "source": "pragma solidity 0.4.24;\n\ncontract Casino {\n    address public owner;\n    uint256 public minimumBet;\n    uint256 public totalBet;\n    uint256 public numberOfBets;\n    uint256 public maxAmountOfBets = 100;\n    address[] public players;\n    uint256 public numberGenerated;\n\n    struct Player{\n        uint256 amountBet;\n        uint256 numberSelected;\n    }\n\n    // maps address & player to playerInfo\n    mapping(address=>Player) public playerInfo;\n\n    //function Casino(uint256 _minimumBet) public {\n    constructor(uint256 _minimumBet) public {\n        owner = msg.sender;\n        if(_minimumBet != 0) minimumBet = _minimumBet;\n    }\n\n    function kill() public {\n        if(msg.sender == owner) selfdestruct(owner);\n    }\n\n    // constant => doesn't cost any gas to run b/c it's returning\n    // an already existing value from blockchain -- reading a value\n    function checkPlayerExists(address player) public constant returns(bool){\n        for(uint256 i = 0; i < players.length; i++){\n            if(players[i]==player) return true;\n        }\n        return false;\n    }\n\n    function generateNumberWinner() public {\n        numberGenerated = block.number % 10 + 1; // not secure\n        distributePrizes(numberGenerated);\n    }\n\n    function distributePrizes(uint256 numberWinner) public {\n        address[100] memory winners;\n        uint256 count = 0;\n        for(uint256 i=0; i<players.length; i++){\n            address playerAddress = players[i];\n            // add player to array of winners\n            if(playerInfo[playerAddress].numberSelected == numberWinner){\n                winners[count] = playerAddress;\n                count++;\n            }\n            delete playerInfo[playerAddress]; //delete all the players\n            totalBet = 0;\n            numberOfBets = 0;\n        }\n\n        players.length = 0; // delete all the players\n\n        // winnings split amongst winners\n        uint256 winnerEtherAmount = totalBet / winners.length;\n\n        for(uint256 j=0; j<count;j++){\n            if(winners[j] != address(0)) winners[j].transfer(winnerEtherAmount);\n        }\n    }\n\n    //To bet for a number between 1 and 10 inclusive\n    // payable => function can receive either when executed\n    // msg.sender & msg.value are defined by user when executing contract\n    //sender = address, value = amount of ether paid when executing payable fxn\n    function bet(uint256 numberSelected) public payable {\n        // verify player hasn't played already\n        require(!checkPlayerExists(msg.sender));\n        require(numberSelected >=1 && numberSelected <=10);\n        require(msg.value >= minimumBet);\n\n        playerInfo[msg.sender].amountBet = msg.value;\n        playerInfo[msg.sender].numberSelected = numberSelected;\n        numberOfBets++;\n        players.push(msg.sender);\n        totalBet += msg.value;\n\n        if(numberOfBets >= maxAmountOfBets) generateNumberWinner();\n    }\n\n    // fallback function, executed when sending ether to contract w/o\n    // executing any function\n    function() public payable{}\n}\n",
  "sourcePath": "/home/leogh/Projects/dapp/contracts/Casino.sol",
  "compiler": {
    "name": "solc",
    "version": "0.4.24+commit.e67f0147.Emscripten.clang"
  },
  "schemaVersion": "2.0.1",
  "updatedAt": "2018-07-04T20:26:28.731Z"
}